:100000000C943C1B0C946D1B0C946D1B0C946D1B81
:100010000C946D1B0C946D1B0C946D1B0C946D1B40
:100020000C946D1B0C946D1B0C946D1B0C946D1B30
:100030000C946D1B0C946D1B0C946D1B0C946D1B20
:100040000C946D1B0C940D7A0C946D1B0C946D1B11
:100050000C946D1B0C946D1B0C946D8C0C94FDCF4B
:100060000C946D1B0C9491200C946D1B0C946D1BC7
:100070000C946D1B0C946D1B0C946D1B0C946D1BE0
:100080000C946D1B0C946D1B0C946D1B0C946D1BD0
:100090000C946D1B0C946D1B0C946D1B0C946D1BC0
:1000A0000C946D1B0C946D1B0C946D1B0C946D1BB0
:1000B0000C946D1B0C946D1B0C946D1B0C946D1BA0
:1000C0000C946D1B0C946D1B0C946D1B0C946D1B90
:1000D0000C946D1B0C946D1B0C946D1B0C946D1B80
:1000E0000C946D1BC78CD78CF68C068D218D268DBC
:1000F000298D2E8D318D368D398D3E8D488D32D1A5
:1001000037D13CD146D150D1C9D15AD162D16AD16F
:1001100074D17ED188D197D1A1D1C9D1ABD1B5D17C
:10012000BFD1EAD1EDD1DCD1E0D1E6D124D2F1D1F9
:10013000F5D1FBD1FFD103D209D20DD211D224D2F5
:1001400017D21BD21FD2084AD73B3BCE016E84BCCC
:10015000BFFDC12F3D6C74319ABD56833DDA3D0021
:10016000C77F11BED9E4BB4C3E916BAAAABE00006A
:1001700000803F05A84CCDB2D44EB93836A9020C48
:1001800050B9918688083CA6AAAA2ABE0000008021
:100190003F00205A005A2D50726F6265204F6666EC
:1001A00073657420286D6D293A0046696C616D6530
:1001B0006E742073657474696E67733A2044697352
:1001C00061626C6564002020204D32303020440094
:1001D00046696C616D656E742073657474696E67D1
:1001E000733A002044002049002020204D33303154
:1001F0002050005049442073657474696E67733AE7
:1002000000205A0020590020204D3230362058005E
:10021000486F6D65206F666673657420286D6D2963
:100220003A00204500205A00205800204200205467
:100230000020204D323035205300416476616E63DA
:100240006564207661726961626C65733A20533D22
:100250004D696E20666565647261746520286D6DF8
:100260002F73292C20543D4D696E20747261766580
:100270006C20666565647261746520286D6D2F73EE
:10028000292C20423D6D696E696D756D207365671F
:100290006D656E742074696D6520286D73292C203E
:1002A000583D6D6178696D756D205859206A657289
:1002B0006B20286D6D2F73292C20205A3D6D61789D
:1002C000696D756D205A206A65726B20286D6D2FDF
:1002D00073292C2020453D6D6178696D756D204531
:1002E000206A65726B20286D6D2F732900205400E1
:1002F00020520020204D323034205000416363658D
:100300006C65726174696F6E733A20503D707269EA
:100310006E74696E672C20523D72657472616374ED
:1003200020616E6420543D74726176656C002045D6
:1003300000205A0020590020204D32303120580032
:100340004D6178696D756D20416363656C6572619F
:1003500074696F6E20286D6D2F7332293A00204525
:1003600000205A0020590020204D32303320580000
:100370004D6178696D756D2066656564726174653F
:100380007320286D6D2F73293A00204500205A00F4
:1003900020590020204D3932205800537465707365
:1003A0002070657220756E69743A004861726463EA
:1003B0006F6465642044656661756C742053657470
:1003C00074696E6773204C6F616465640053544FA9
:1003D000505045442E20005072696E74657220732F
:1003E000746F707065642064756520746F20657229
:1003F000726F72732E20466978207468652065726A
:10040000726F7220616E6420757365204D393939C1
:1004100020746F20726573746172742E2028546585
:100420006D70657261747572652069732072657391
:1004300065742E205365742069742061667465723A
:100440002072657374617274696E6729004B494C40
:100450004C45442E20005072696E746572206861AC
:100460006C7465642E206B696C6C28292063616C48
:100470006C65642100526573656E643A20004368C0
:10048000616E67652066696C616D656E74005A20E7
:100490004F6666736574203A20007A5F6D61783A22
:1004A00020007A5F6D696E3A20005A204F666673AD
:1004B0006574005A204F6666736574206F6B006C1C
:1004C000636420636F6E74726173742076616C75FF
:1004D000653A200053657474696E672054726176C2
:1004E000656C20416363656C65726174696F6E3A17
:1004F000200053657474696E67205265747261637D
:100500007420416363656C65726174696F6E3A2033
:100510000053657474696E67205072696E74696EF9
:100520006720416363656C65726174696F6E3A2020
:100530000053657474696E67205072696E74696ED9
:100540006720616E642054726176656C6C696E67B9
:1005500020416363656C65726174696F6E3A200057
:1005600065305F6C61636B3A20007A5F6D696E3A4B
:100570002000795F6D696E3A2000785F6D61783A8E
:100580002000785F6D696E3A2000205A3A002059A9
:100590003A0020436F756E7420583A200020453A87
:1005A00000205A3A0020593A00583A004649524D24
:1005B000574152455F4E414D453A4D61726C696EEF
:1005C0002056313B20537072696E7465722F6772CA
:1005D000626C206D617368757020666F722067654C
:1005E0006E36204649524D574152455F55524C3A5E
:1005F00068747470733A2F2F6769746875622E631C
:100600006F6D2F4D61726C696E4669726D776172A4
:10061000652F4D61726C696E2050524F544F434F9D
:100620004C5F56455253494F4E3A312E30204D4182
:100630004348494E455F545950453A52756D626181
:100640002045585452554445525F434F554E543AF5
:100650003120555549443A30303030303030302D2B
:10066000303030302D303030302D303030302D3093
:1006700030303030303030303030300A0052756D2C
:100680006261204F66662E0052756D626120726550
:100690006164792E0042656420646F6E652E0020CF
:1006A000503A0020533A003A00204600202F003AEA
:1006B00000205400202F0020423A0020443A00201D
:1006C000423A0020453A00543A00426564204865A9
:1006D0006174696E672E0048656174696E67206495
:1006E0006F6E652E0020503A0020533A003A0020E9
:1006F0004600202F003A00205400202F0020423ACC
:100700000020443A0020573A0020453A00543A006D
:1007100048656174696E672E2E2E0020503A0020C5
:10072000533A003A00204600202F003A002054009F
:10073000202F0020423A00202F006F6B20543A00F7
:100740002569206D696E2C2025692073656300453D
:100750006E642066696C65206C697374004265671D
:10076000696E2066696C65206C697374004E6F2039
:100770006D6F76652E0052756D62612072656164E1
:10078000792E00526573756D696E67207072696E9F
:1007900074005761697420666F7220757365722EDC
:1007A0002E2E00536C6565702E2E2E002200556E85
:1007B0006B6E6F776E20636F6D6D616E643A202291
:1007C00000256920686F757273202569206D696E38
:1007D0007574657300446F6E65207072696E74691C
:1007E0006E672066696C650053544F505045442E27
:1007F00020005072696E7465722073746F7070653A
:10080000642064756520746F206572726F72732E38
:100810002046697820746865206572726F72206165
:100820006E6420757365204D39393920746F2072DC
:100830006573746172742E202854656D70657261E1
:10084000747572652069732072657365742E205308
:1008500065742069742061667465722072657374B2
:10086000617274696E6729004E6F204C696E652055
:100870004E756D6265722077697468206368656380
:100880006B73756D2C204C617374204C696E653AE6
:1008900020004E6F20436865636B73756D20776928
:1008A0007468206C696E65206E756D6265722C20AF
:1008B0004C617374204C696E653A2000636865630F
:1008C0006B73756D206D69736D617463682C204C5A
:1008D000617374204C696E653A20004C696E652026
:1008E0004E756D626572206973206E6F74204C6165
:1008F0007374204C696E65204E756D6265722B3184
:100900002C204C617374204C696E653A20004D3187
:10091000313000446F6E6520736176696E672066C2
:10092000696C652E006F6B004D3239002020506CD1
:10093000616E6E6572427566666572427974657342
:100940003A20002046726565204D656D6F72793AD8
:1009500020004A756C203131203230313700436F2E
:100960006D70696C65643A2000286E6F6E652C208E
:1009700064656661756C7420636F6E6669672900D3
:10098000207C20417574686F723A20004A756C2093
:10099000313120323031372030393A31373A333043
:1009A00000204C61737420557064617465643A2052
:1009B00000312E312E362D72657631004D61726C0C
:1009C000696E0020536F667477617265205265739B
:1009D000657400205761746368646F6720526573A3
:1009E0006574002042726F776E206F7574205265B7
:1009F000736574002045787465726E616C20526571
:100A000073657400506F776572557000737461720E
:100A100074002200656E717565696E67202200FFA3
:100A2000FFFF0000A0400000A04000000040008048
:100A300098430080984300801844000000000000A4
:100A40000000000000000080984300809843008070
:100A50001844000000000000000000000000656372
:100A6000686F3A004572726F723A007C3C3E5E2BB2
:100A70003D3F2F5B5D3B2C2A225C004D38342058D3
:100A80002059205A20450043616E6E6F7420656EB8
:100A9000746572207375626469723A20004D323455
:100AA000004D3233202573006175746F25692E6700
:100AB000006572726F722077726974696E67207454
:100AC0006F2066696C65004E6F742053442070720D
:100AD000696E74696E67002F005344207072696EEE
:100AE00074696E67206279746520002E0044656C1D
:100AF0006574696F6E206661696C65642C20466957
:100B00006C653A200046696C652064656C657465A7
:100B1000643A002E006F70656E206661696C6564D2
:100B20002C2046696C653A200057726974696E67BB
:100B300020746F2066696C653A20002E006F706526
:100B40006E206661696C65642C2046696C653A208C
:100B5000002E006F70656E206661696C65642C20E4
:100B600046696C653A200046696C652073656C6562
:100B700063746564002053697A653A200046696CA5
:100B800065206F70656E65643A20002E006F706599
:100B90006E206661696C65642C2046696C653A203C
:100BA000004E6F772066726573682066696C653ADF
:100BB00020004E6F7720646F696E672066696C65F0
:100BC0003A20002220706F73002220706172656EDF
:100BD000743A2200535542524F5554494E452043D2
:100BE000414C4C207461726765743A2200747279CA
:100BF000696E6720746F2063616C6C207375622D61
:100C000067636F64652066696C65732077697468D3
:100C100020746F6F206D616E79206C6576656C73E2
:100C20002E204D4158206C6576656C2069733A0022
:100C300053442063617264206F6B006F70656E5265
:100C40006F6F74206661696C656400766F6C756D9A
:100C5000652E696E6974206661696C656400534431
:100C600020696E6974206661696C0020746F6F2062
:100C70006C6F6E6720657874727573696F6E207023
:100C8000726576656E7465640020636F6C642065C0
:100C90007874727573696F6E2070726576656E74A4
:100CA0006564004D383420582059205A204500658D
:100CB0006E6473746F7073206869743A205A0020F0
:100CC0005A3A00656E6473746F7073206869743A81
:100CD00020590020593A00656E6473746F70732058
:100CE0006869743A20580020583A00656E6473743D
:100CF0006F7073206869743A200024F4D43050C3B4
:100D00008E20C2A24017828B7011127A910D816CD5
:100D1000D90AA861E108C7586607615143061E4B0E
:100D20005D05C145A7041A411104093D98037139B5
:100D300031034036DB0265339102D4305402802EF9
:100D40001D02632CEE01752AC501B028A0011027F1
:100D500081018F2564012B244B01E0223401AC2159
:100D60001F018D200D01801FFC00841EED00971DCA
:100D7000DF00B81CD200E61BC600201BBC00641AB2
:100D8000B200B219A8000A19A0006A189900D11778
:100D9000910040178B00B516840031167E00B31504
:100DA00079003A157300C7146F0058146A00EE13E7
:100DB00066008813630025135E00C7125B006C1287
:100DC000570015125400C111510070114F0021112C
:100DD0004B00D61049008D10470046104400021009
:100DE0004200C00F4000800F3E00420F3C00060F43
:100DF0003B00CB0E3800930E37005C0E3500270EFB
:100E00003400F30D3200C10D3100900D3000600D43
:100E10002E00320D2D00050D2C00D90C2B00AE0C30
:100E20002900850C29005C0C2700350C27000E0CCE
:100E30002600E80B2400C40B2400A00B23007D0B2C
:100E400023005A0B2100390B2100180B2000F80A4F
:100E50001F00D90A1E00BB0A1E009D0A1D00800A41
:100E60001D00630A1C00470A1B002C0A1B00110A04
:100E70001A00F7091A00DD091900C4091900AB09A5
:100E80001900920917007B091800630917004C0923
:100E9000160036091600200916000A091500F50883
:100EA0001500E0081400CC081400B8081400A408C9
:100EB0001400900813007D0812006B0813005808F6
:100EC000120046081200340811002308110012080D
:100ED000110001081100F0071000E0071000D00712
:100EE0001000C0071000B0070F00A1071000910705
:100EF0000E0083070F0074070F0065070E005707E9
:100F00000E0049070E003B070D002E070E002007BC
:100F10000D0013070D0006070D00F9060C00ED0685
:100F20000D00E0060C00D4060C00C8060C00BC0640
:100F30000C00B0060C00A4060B0099060C008D06F0
:100F40000B0082060B0077060B006C060B00610697
:100F50000A0057060B004C060A0042060A00380633
:100F60000A002E060A0024060A001A060A001006C5
:100F7000090007060A00FD050900F4050900EB0554
:100F80000900E2050900D9050900D0050900C705D7
:100F90000900BE050900B5050800AD050800A50556
:100FA00009009C050800940508008C0508008405CC
:100FB00008007C050800740508006C05070065053D
:100FC00008005D050700560508004E0507004705A7
:100FD00007004005080038050700310507002A050D
:100FE0000700230507001C050600160507000F056E
:100FF00007000805060002050700FB040600F504CB
:101000000700EE040600E8040600E2040700DB0423
:101010000600D5040600CF040600C9040600C30478
:101020000600BD040600B7040600B1040500AC04C8
:101030000600A6040600A00405009B040600950413
:101040000500900406008A0405008504050080045C
:1010500006007A04050075040500700405006B04A1
:10106000050066040500610405005C0405005704E2
:101070000500520405004D04050048040500430422
:1010800005003E0404003A04050035040500300460
:1010900004002C04050027040400230405001E049A
:1010A00004001A04040016040500110404000D04D1
:1010B0000400090405000404040000040400FC0307
:1010C0000400F8030400F4030400F0030400EC033C
:1010D0000400E8030400E4030400E0030400DC036C
:1010E0000400D8030400D4030400D0030400CC039C
:1010F0000400C8030300C503030024F404D9201B23
:10110000C40C5C0E9804C4095F0265077101F40504
:10111000F900FB04B30048048700C10369005803C9
:10112000550003034500BE023A0084023100530219
:101130002A002902250004022000E4011C00C80145
:101140001900AF0117009801140084011300710108
:1011500010006101100051010E0043010D00360125
:101160000B002B010B0020010B00150109000C01E5
:10117000090003010800FB000800F3000800EB0071
:101180000700E4000600DE000600D8000600D200DA
:101190000600CC000500C7000500C2000500BD0028
:1011A0000400B9000400B5000400B1000400AD0063
:1011B0000400A9000400A5000300A20003009F0092
:1011C00004009B00030098000300950002009300B8
:1011D0000300900003008D0002008B0003008800D4
:1011E00002008600020084000300810002007F00EC
:1011F00002007D0002007B000200790002007700FF
:10120000010076000200740002007200010071000B
:1012100002006F0002006D0001006C0002006A0015
:10122000010069000200670001006600010065001E
:101230000100640002006200010061000100600022
:1012400001005F0002005D0001005C0001005B0026
:1012500001005A0001005900010058000100570028
:101260000100560001005500010054000100530028
:101270000000530001005200010051000100500025
:1012800001004F0001004E0000004E0001004D0023
:1012900001004C0001004B0000004B0001004A001F
:1012A000010049000100480000004800010047001B
:1012B0000100460000004600010045000000450016
:1012C000010044000100430000004300010042000F
:1012D0000000420001004100000041000100400008
:1012E00001003F0000003F0001003E0000003E0002
:1012F00001003D0000003D0001003C0000003C00FA
:1013000000003C0001003B0000003B0001003A00EF
:1013100000003A00010039000000390001003800E7
:1013200000003800000038000100370000003700DE
:1013300001003600000036000000360001003500D4
:1013400000003500000035000100340000003400CA
:1013500000003400010033000000330000003300BF
:1013600001003200000032000000320001003100B4
:1013700000003100000031000100300000003000AA
:101380000000300001002F0000002F0000002F009F
:1013900000002F0001002E0000002E0000002E0093
:1013A00001002D0000002D0000002D0000002D0088
:1013B00001002C0000002C0000002C0000002C007C
:1013C00001002B0000002B0000002B0000002B0070
:1013D00001002A0000002A0000002A0000002A0064
:1013E0000100290000002900000029000000290058
:1013F000000029000100280000002800000028004B
:10140000000028000000280001002700000027003D
:101410000000270000002700000027000100260030
:101420000000260000002600000026000000260024
:101430000100250000002500000025000000250017
:101440000000250000002500010024000000240009
:1014500000002400000024000000240001002300FC
:1014600000002300000023000000230000002300F0
:1014700000002300000023000100220000002200E1
:1014800000002200000022000000220000002200D4
:1014900001002100000021000000210000002100C7
:1014A00000002100000021000000210001002000B8
:1014B00000002000000020000000200000002000AC
:1014C00000002000000020000000200001001F009C
:1014D00000001F0000001F0000001F0000001F0090
:1014E00000001F0000001F0001001E0000001E0081
:1014F00000001E0000001E000000544845524D41EF
:101500004C2052554E4157415900546865726D61E7
:101510006C2052756E617761792C207379737465D4
:101520006D2073746F707065642120486561746507
:10153000725F49443A20003A2045787472756465B8
:1015400072207377697463686564206F66662E2005
:101550004D494E54454D50207472696767657265F8
:10156000642021004572723A204D494E54454D5039
:10157000003A2045787472756465722073776974D7
:1015800063686564206F66662E204D415854454D52
:101590005020747269676765726564202121004577
:1015A00072723A204D415854454D5000202D20492B
:1015B0006E76616C696420657874727564657220FA
:1015C0006E756D626572202100504944204175742A
:1015D0006F74756E652066696E6973686564212035
:1015E00050757420746865206C617374204B702C86
:1015F000204B6920616E64204B6420636F6E7374AE
:10160000616E74732066726F6D2061626F76652003
:10161000696E746F20436F6E666967757261746975
:101620006F6E2E6800504944204175746F74756E5A
:1016300065206661696C6564212074696D656F75EC
:10164000740020403A006F6B20543A006F6B2042C8
:101650003A00504944204175746F74756E65206678
:1016600061696C6564212054656D70657261747583
:10167000726520746F6F206869676800204B643A58
:101680002000204B693A2000204B703A2000204374
:101690006C61737369632050494420002054753A8B
:1016A0002000204B753A2000206D61783A20002000
:1016B0006D696E3A200020643A20002062696173EF
:1016C0003A20001000C0026003D800B006AF00004E
:1016D0000A9800500D8900A0107D00F0137300409F
:1016E000176A00901A6300E01D5B003021550080EE
:1016F000244E00D0274700202B4100702E3A00C016
:1017000031320010352A0060381F00B03B11000054
:101710003F0000436172642072656D6F76656400FE
:101720004361726420696E736572746564004D3341
:101730003030205336353920503230300A4D333076
:10174000302053363938205032303000B02000B0CD
:10175000200059002D2D3A2D2D004D3630300043FC
:1017600068616E67652066696C616D656E740046C0
:101770006C6F77203000466C6F77203000466C6FBE
:101780007700466C6F770046616E20737065656404
:101790000046616E207370656564004265640042B6
:1017A0006564004E6F7A7A6C65004E6F7A7A6C656C
:1017B000005370656564005370656564004D616930
:1017C0006E005072656865617420504C412042651E
:1017D00064005072656865617420504C412031008E
:1017E0005072657061726500507265686561742041
:1017F00041425320426564005072656865617420FF
:10180000414253203100507265706172650058008A
:1018100059005A0045787472756465720045787491
:1018200072756465720045787472756465720045FE
:1018300078747275646572004D6F7665205A004D3C
:101840006F76652059004D6F76652058004D6F7694
:10185000652061786973004D6F766520302E316D9B
:101860006D004D6F766520316D6D004D6F76652092
:1018700031306D6D0050726570617265004D6F762C
:10188000652061786973004D38300053776974635F
:101890006820706F776572206F6E004D383100538D
:1018A000776974636820706F776572206F66660071
:1018B000436F6F6C646F776E00507265686561741A
:1018C00020414253005072656865617420504C415C
:1018D0000053657420686F6D65206F66667365746C
:1018E0007300473238004175746F20686F6D650072
:1018F0004D38340044697361626C6520737465709F
:1019000070657273004D61696E00426564004265E6
:1019100064004E6F7A7A6C65004E6F7A7A6C65005F
:1019200046616E2073706565640046616E20737059
:101930006565640054656D706572617475726500EB
:1019400042656400426564004E6F7A7A6C65004EB1
:101950006F7A7A6C650046616E207370656564000D
:1019600046616E2073706565640054656D706572C4
:1019700061747572650050726568656174204142DA
:101980005320636F6E660050726568656174205005
:101990004C4120636F6E66005049442D430050490E
:1019A000442D43005049442D44005049442D4400E7
:1019B0005049442D49005049442D49005049442D77
:1019C00050005049442D500020FF204661637400B0
:1019D00020FF20466163740020FF204D61780020C5
:1019E000FF204D61780020FF204D696E0020FF2010
:1019F0004D696E004175746F74656D70004F666659
:101A0000004F6E200046616E20737065656400466D
:101A1000616E2073706565640042656400426564B0
:101A2000004E6F7A7A6C65004E6F7A7A6C6500436F
:101A30006F6E74726F6C004573746570732F6D6D8B
:101A4000004573746570732F6D6D005A7374657003
:101A5000732F6D6D005A73746570732F6D6D00591F
:101A600073746570732F6D6D005973746570732F87
:101A70006D6D005873746570732F6D6D00587374BD
:101A80006570732F6D6D00412D74726176656C0009
:101A9000412D74726176656C00412D7265747261BE
:101AA000637400412D7265747261637400416D61ED
:101AB00078206500416D6178206500416D61782076
:101AC0007A00416D6178207A00416D61782079005B
:101AD000416D6178207900416D6178207800416D19
:101AE00061782078005654726176206D696E0056D8
:101AF00054726176206D696E00566D696E00566D88
:101B0000696E00566D6178206500566D61782065BC
:101B100000566D6178207A00566D6178207A005603
:101B20006D6178207900566D6178207900566D617D
:101B300078207800566D617820780056652D6A65AA
:101B4000726B0056652D6A65726B00567A2D6A6558
:101B5000726B00567A2D6A65726B005678792D6A21
:101B600065726B005678792D6A65726B004163630C
:101B7000656C00416363656C00436F6E74726F6CDB
:101B80000046696C2E204469612E20310046696C44
:101B90002E204469612E2031004520696E206D6D34
:101BA000B3004F6666004F6E2000436F6E74726F15
:101BB0006C004C434420636F6E7472617374005206
:101BC0006573746F7265206661696C736166650028
:101BD0004C434420636F6E74726173740046696C89
:101BE000616D656E74004D6F74696F6E0054656D44
:101BF0007065726174757265004D61696E004D3279
:101C000034004D323320257300F92E2E004D6169CA
:101C10006E004E6F205344206361726400507269FD
:101C20006E742066726F6D2053440053746F702081
:101C30007072696E7400526573756D65207072699B
:101C40006E74005061757365207072696E74004324
:101C50006F6E74726F6C00507265706172650054C3
:101C6000756E6500496E666F2073637265656E0000
:101C700000060900FE070192032120FFFF08FE076E
:101C8000FF000000060000010707060200808080B8
:101C900080800080030202060105A0A00507070658
:101CA00000005050F850F85050050707060000207B
:101CB00078A07028F020050707060000C0C8102093
:101CC0004098180507070600006090A040A890689B
:101CD000020303060104C040800307070601002039
:101CE00040808080402003070706010080402020BC
:101CF00020408005050506000120A870A8200505E4
:101D0000050600012020F820200203030602FFC080
:101D10004080050101060003F8020202060200C02D
:101D2000C0050505060001081020408005070706CC
:101D300000007088888888887003070706010040C3
:101D4000C040404040E0050707060000708808706A
:101D50008080F8050707060000F81020100808F03A
:101D600005070706000010305090F810100507070F
:101D7000060000F880F008088870050707060000D4
:101D8000708080F0888870050707060000F808104A
:101D900020202020050707060000708888708888AA
:101DA000700507070600007088887808087002052B
:101DB00005060200C0C000C0C00206060602FFC041
:101DC000C000C0408004070706000010204080408B
:101DD0002010050303060002F800F80407070601B7
:101DE0000080402010204080050707060000708812
:101DF000081020002005070706000070880868A862
:101E0000A870050707060000708888F8888888058C
:101E10000707060000F08888F08888F005070706A5
:101E2000000070888080808870050707060000F039
:101E30008888888888F0050707060000F88080F009
:101E40008080F8050707060000F88080F080808019
:101E5000050707060000708880B8888870050707A6
:101E6000060000888888F88888880107070602002D
:101E70008080808080808005070706000038101071
:101E8000101090600507070600008890A0C0A09081
:101E900088050707060000808080808080F805079D
:101EA0000706000088D8A8888888880507070600E4
:101EB000008888C8A89888880507070600007088E9
:101EC0008888888870050707060000F08888F080F9
:101ED000808005070706000070888888A89068053C
:101EE0000707060000F08888F0A09088050707061D
:101EF0000000788080700808F0050707060000F8E9
:101F000020202020202005070706000088888888D8
:101F10008888700507070600008888888888502010
:101F20000507070600008888888888A850050707E5
:101F300006000088885020508888050707060000A2
:101F400088888850202020050707060000F8081020
:101F5000204080F8030707060100E0808080808031
:101F6000E00505050600018040201008030707066C
:101F70000100E02020202020E005030306000420CB
:101F80005088050101060000F802020206020580E1
:101F900040050505060000700878887805070706E3
:101FA00000008080B0C88888F00505050600007034
:101FB00080808870050707060000080868988888F0
:101FC000780505050600007088F88070050707068B
:101FD00000003048E0404040400506060600FF7023
:101FE00088887808700507070600008080B0C888D8
:101FF00088880107070602008000808080808003B7
:1020000008080601FF200020202020A04004070728
:10201000060000808090A0C0A09003070706010082
:10202000C04040404040E0050505060000D0A8A89B
:10203000A8A8050505060000B0C88888880505051C
:1020400006000070888888700506060600FFF08884
:1020500088F080800506060600FF788888780808E2
:10206000050505060000B0C880808005050506004E
:102070000070807008F00407070600004040E04050
:1020800040403005050506000088888898680505E9
:102090000506000088888850200505050600008890
:1020A00088A8A8500505050600008850205088051E
:1020B00006060600FF888888780870050505060072
:1020C00000F8102040F80307070601002040408078
:1020D00040402001070706020080808080808080C9
:1020E00003070706010080404020404080050202AF
:1020F00006000268900000000600000000000600D4
:1021000000000000060000000000060000000000C3
:1021100006000000000006000000000006000000AD
:10212000000006000000000006000000000006009D
:102130000000000006000000000006000000000093
:10214000060000000000060000000000060000007D
:10215000000006000000000006000000000006006D
:102160000000000006000000000006000000000063
:10217000060000000000060000000000060000004D
:10218000000006000000000006000000000006003D
:102190000000000006000000000006000000000033
:1021A000060000000000060000000000060000001D
:1021B000000006000000000006000000000006000D
:1021C00000010707060200800080808080800507EC
:1021D000070600002070A8A0A870200507070600C9
:1021E00000304040E04050A805050506000088701A
:1021F000507088050707060000885020F820F82056
:1022000001070706020080808000808080050808A2
:102210000600003048205050209060030101060164
:1022200007A0050707060000F888B8B8B888F805C1
:102230000707060001700878887800F8050505068C
:1022400000012850A05028050303060001F80808E3
:102250000202020602064080050707060000F88811
:10226000A88898A8F8050101060006F804040406E9
:102270000003609090600507070600002020F8200A
:102280002000F804050506000360902040F00305D7
:1022900005060003E020E020E002020206020640FC
:1022A000800508080600FF8888888898E8808005EF
:1022B0000707060000789898781818180202020696
:1022C0000202C0C00202020602FF408003050506AA
:1022D000000340C04040E005070706000170888801
:1022E000887000F8050505060001A0502850A005DB
:1022F00007070600008890A858B8080805070706D1
:1023000000008890B848982038050808060000C0EA
:1023100040C048D8380808050707060000200020FC
:10232000408088700508080600004020007088F88A
:1023300088880508080600001020007088F8888842
:102340000508080600002050007088F888880508F5
:10235000080600006890007088F88888050808065C
:1023600000005000708888F888880508080600007A
:102370002050207088F8888805070706000038601C
:10238000A0B8E0A0B80508080600FF708880808823
:10239000702060050808060000402000F880F080EA
:1023A000F8050808060000081000F880F080F8051D
:1023B0000808060000205000F880F080F8050707A4
:1023C0000600005000F880F080F8030808060100BD
:1023D000804000E0404040E0030808060100204043
:1023E00000E0404040E003080806010040A000E093
:1023F000404040E0030707060100A000E0404040E5
:10240000E0050707060000704848E84848700508DE
:102410000806000068900088C8A898880508080683
:102420000000402070888888887005080806000031
:1024300010207088888888700508080600002050E1
:102440000070888888700508080600006890007091
:102450008888887005080806000050007088888801
:102460008870050505060001885020508805080879
:102470000600FF1070A8A8A8A8704005080806006C
:1024800000402088888888887005080806000010A9
:102490002088888888887005080806000020500079
:1024A0008888888870050808060000500088888899
:1024B0008888700508080600001020885020202019
:1024C000200509090600FFC040704848704040E000
:1024D0000408080601FF609090A09090E080050835
:1024E0000806000040200070087888780508080673
:1024F00000001020007008788878050808060000A1
:102500002050007008788878050808060000689058
:1025100000700878887805070706000050007008EA
:102520007888780508080600002050207008788810
:1025300078050606060000D02878A0A850050606F3
:102540000600FF70808870206005080806000040C3
:1025500020007088F8807005080806000010200030
:102560007088F88070050808060000205000708808
:10257000F8807005070706000050007088F880702A
:1025800003080806010080400040C04040E0030806
:102590000806010020400040C04040E00308080653
:1025A000010040A00040C04040E0030707060100D2
:1025B000A00040C04040E0050707060000A040A082
:1025C00010788870050808060000689000B0C88878
:1025D00088880508080600004020007088888870F8
:1025E000050808060000102000708888887005081B
:1025F00008060000205000708888887005080806CA
:102600000000689000708888887005070706000041
:10261000500070888888700505050600012000F8C4
:10262000002005080806000040F0C8888898781047
:10263000050808060000C0F88888888888F805051D
:10264000050600012030F8302005080806000020AB
:1026500070F820202020E00509090600FF2070A85E
:10266000A8B8888870200509090600FFE080C0B07E
:10267000A8283028280509090600FFF8A8888888B6
:102680008888A8F8050A0A0600FE20505050508895
:10269000A8A88870000000000000000000000000F2
:1026A0007FFFE0000000000000000000000000705C
:1026B00000E000000000000000000000000061F8E1
:1026C0006000000000000000000000000041F82051
:1026D00000000000000000000000000040F02000AA
:1026E000000000000000000000000040602000002A
:1026F000000000000000000000005801A07F8000E2
:102700000000000000004104005C63A0FFC0000066
:1027100000000000002082005EF7A0FFC000000063
:10272000000000002082005EF7A0FFC00000000053
:102730000000004104005C63A07F800000000000F6
:1027400000008208005801A07F8000000000000007
:1027500001041000406020FFC000000000000001E4
:1027600004100040F020FFC00000000000000082C4
:10277000080041F820FFC0000000000000004104F4
:102780000061F8603F000000000000000000000051
:102790007000E01E0000000000000001FFFF807FCD
:1027A000FFE00C0000000000000001FFFF800000BF
:1027B000000000000000000000000000007FFFE0BB
:1027C0000000000000000000000000007000E000B9
:1027D0000000000000000000000000630C6000002A
:1027E00000000000000000000000470E2000000074
:1027F0000000000000000000004F0F20000000005B
:1028000000000000000000005F0FA00000000000BA
:10281000000000000000005E07A07F8000000000B4
:10282000000000410400406020FFC00000000000E4
:10283000000020820040F020FFC0000000000000E7
:102840000020820040F020FFC000000000000000D7
:102850004104004060207F800000000000000082F2
:1028600008005E07A07F8000000000000001041047
:10287000005F0FA0FFC00000000000000104100076
:102880004F0F20FFC000000000000000820800473A
:102890000E20FFC000000000000000410400630C97
:1028A000603F00000000000000000000007000E039
:1028B0001E0000000000000001FFFF807FFFE00C11
:1028C0000000000000000001FFFF800000001FFF6B
:1028D000FFFFFFFFFF600000000001FF400000005D
:1028E0000000FF8000000000007F83CF00000C305C
:1028F0003F87FF80000C301F867980000C000F8C12
:1029000030C7838C30E78C30CFC7CC31F38C30DCD0
:10291000ECEC33B98C30D86C6C33198C30D06C0C37
:1029200033198C30D86C0C33198C30DC6C0E3B199D
:102930008C30CF7C079F198C30C77C038F194000E7
:102940000000000002600000000000061FFFFFFF03
:10295000FFFFF800091200FC0A01E803D720FFFD81
:102960000EFD0BFD00000009000E010B0B09040019
:1029700080808080808080000080800404040903BF
:102980000790909090080A0A090000242424FF244C
:1029900024FF242424070B0B0901FF107C92905084
:1029A000381412927C10070A0A09010042A4A448B4
:1029B0001010244A4A84070A0A0901006090909086
:1029C0006062948894620104040904078080808016
:1029D000030C0C0903FF20404080808080808040F1
:1029E0004020030C0C0903FF8040402020202020C1
:1029F0002040408007070709010310925438549281
:102A000010070707090101101010FE101010020432
:102A1000040904FEC0C04080070101090104FE0250
:102A20000202090400C0C0070A0A090100020404E6
:102A300008101020404080070A0A0901003844822B
:102A400082828282824438070A0A090100103050CB
:102A5000901010101010FE070A0A09010038448275
:102A6000020408102040FE070A0A090100FE0204C1
:102A700008180402028478070A0A090100040C14E9
:102A8000244484FE040404070A0A090100FE80802D
:102A900080F80402028478070A0A0901003C408099
:102AA00080B8C482824438070A0A090100FE020481
:102AB00004080810101010070A0A0901003844829F
:102AC00044384482824438070A0A090100384482A3
:102AD00082463A02020478020707090400C0C000D7
:102AE0000000C0C00209090904FEC0C0000000C007
:102AF000C0408005090909020008102040804020DC
:102B00001008070404090102FE0000FE0509090976
:102B10000200804020100810204080070A0A0901A6
:102B20000038448202040810100010070A0A090144
:102B30000038449AAAAAAAAA9C403C070A0A09019A
:102B40000010282828447C44828282070A0A09014E
:102B500000F8848284F884828284F8070A0A0901D2
:102B6000003C42808080808080423C070A0A090144
:102B700000F88482828282828284F8070A0A09012C
:102B800000FE808080F880808080FE070A0A0901AC
:102B900000FE808080F88080808080070A0A09011A
:102BA0000038448280808E82824438070A0A0901F4
:102BB0000082828282FE8282828282050A0A090261
:102BC00000F82020202020202020F8070A0A0901F0
:102BD000003E080808080808888870070A0A0901E2
:102BE0000082848890A0D088848282070A0A090122
:102BF00000808080808080808080FE070A0A090132
:102C0000008282C6AA928282828282070A0A09010F
:102C1000008282C2A2928A86828282070A0A0901FF
:102C2000007C82828282828282827C070A0A090177
:102C300000F884828284F880808080080B0B090170
:102C4000FF384482828282828A443A01070A0A0952
:102C50000100F884828284F890888482070A0A0935
:102C600001007C8280807C020202827C070A0A09C1
:102C70000100FE101010101010101010070A0A09A1
:102C8000010082828282828282824438070A0A0993
:102C9000010082828244444428282810070A0A0935
:102CA00001008282828292929292AA44070A0A09C1
:102CB000010082824428101028448282070A0A09EF
:102CC000010082824428101010101010070A0A090F
:102CD0000100FE0204081020408080FE040C0C0954
:102CE00003FFF080808080808080808080F0070AF1
:102CF0000A09010080404020101008040402040C5E
:102D00000C0902FFF010101010101010101010F02D
:102D1000070404090106102844820801010900FF84
:102D2000FF03030309030A80402007070709010086
:102D30007C02027E82867A070A0A0901008080806E
:102D4000BCC2828282C2BC0707070901007C828064
:102D50008080827C070A0A0901000202027A8682C8
:102D60008282867A0707070901007C8282FE8082C0
:102D70007C070A0A0901001C22222020F8202020BA
:102D800020070A0A0901FD7A84848478807C828283
:102D90007C070A0A090100808080BCC2828282828C
:102DA00082050A0A090200600000E020202020209D
:102DB000F8050D0D0902FD1800003808080808087C
:102DC00008888870070A0A0901008080808488903A
:102DD000B0C88482050A0A090200E02020202020D1
:102DE000202020F8070707090100EC9292929292A6
:102DF00082070707090100BCC2828282828207071C
:102E0000070901007C82828282827C070A0A09010A
:102E1000FDB8C4828282C4B8808080070A0A090192
:102E2000FD3A46828282463A0202020707070901FA
:102E3000009C6242404040400707070901007C8235
:102E4000807C02827C0709090901002020FC2020E7
:102E50002020221C070707090100828282828286C5
:102E60007A070707090100828244442828100707CF
:102E7000070901008282929292AA4407070709017A
:102E80000082442810284482070A0A0901FD4242B0
:102E90002424241818109060070707090100FE0475
:102EA00008102040FE060B0B0902001C20202020E9
:102EB000C0202020201C010C0C0904FF8080808091
:102EC0008080808080808080060B0B090100E010EC
:102ED0001010100C10101010E00703030901076216
:102EE000928CFFFFFFFFFFFFFFFFFFFFFFFFFFFFD2
:102EF000FFFFFFFFFFFFFFFFFFFFFFFFFFFFFFFFE2
:102F0000FFFFFF00000009000E010B0B0904008009
:102F10008000008080808080808006080809010091
:102F200008789490A0A47840070A0A0901001C229E
:102F30002020F8202060A25C070606090103827C9D
:102F400044447C82070A0A090100828244287C10DA
:102F50007C101010010B0B0904FF80808080800022
:102F60008080808080040B0B0902FF60908060905D
:102F700090906010906003020209030BA0A0080962
:102F8000090900013C4299A5A1A599423C05070702
:102F9000090103609070907800F8070808090101A2
:102FA0001224489090482412060404090102FC04EB
:102FB0000404050101090204F80809090900013C9B
:102FC00042B9A5BDA9A5423C060101090109FC04BD
:102FD00004040903066090906007090909010110C3
:102FE0001010FE10101000FE040606090104609087
:102FF000106080F0040606090104609020109060C3
:1030000003030309030A2040800709090901FE821E
:1030100082828282C6BA8080070A0A0901007E8AFB
:103020008A8A7A0A0A0A0A0A020202090404C0C049
:103030000403030902FD2090600306060901044011
:10304000C0404040E0050606090104708888700011
:10305000F807080809010190482412122448900733
:103060000A0A09010040C0404042E60A121A060757
:103070000A0A09010040C040404CF2020C101E0731
:103080000A0A0901006090201092660A121A0607C7
:103090000A0A0901001000101020408082827C077B
:1030A0000E0E0901002010080010282828447C4436
:1030B000828282070E0E09010008102000102828C5
:1030C00028447C44828282070E0E090100102844A5
:1030D0000010282828447C44828282070D0D0901B3
:1030E0000034580010282828447C44828282070D2E
:1030F0000D09010028280010282828447C448282D9
:1031000082070E0E090100102828101028282844D4
:103110007C44828282070A0A0901001E2828284E60
:10312000784888888E070D0D0901FD3C428080801B
:10313000808080423C082418070E0E0901002010F0
:103140000800FE808080F880808080FE070E0E09D7
:10315000010008102000FE808080F880808080FEC2
:10316000070E0E09010010284400FE808080F880C0
:10317000808080FE070D0D090100282800FE808058
:1031800080F880808080FE050E0E0902004020102D
:1031900000F82020202020202020F8050E0E090213
:1031A0000010204000F82020202020202020F805BA
:1031B0000E0E09020020508800F820202020202038
:1031C0002020F8050D0D090200505000F8202020A5
:1031D0002020202020F8070A0A09010078444242F2
:1031E000F24242424478070D0D0901003458008232
:1031F00082C2A2928A86828282070E0E0901002074
:103200001008007C82828282828282827C070E0E7B
:10321000090100081020007C8282828282828282E0
:103220007C070E0E090100102844007C82828282F5
:10323000828282827C070D0D0901003458007C8255
:10324000828282828282827C070D0D0901002828F9
:10325000007C82828282828282827C070707090147
:103260000182442810284482070C0C0901FF027CCB
:10327000868A8A9292A2A2C27C80070E0E09010061
:103280002010080082828282828282824438070E65
:103290000E090100081020008282828282828282CE
:1032A0004438070E0E0901001028440082828282F1
:1032B000828282824438070D0D090100282800828D
:1032C000828282828282824438070E0E09010008BF
:1032D00010200082824428101010101010070A0AD3
:1032E0000901008080FC828282FC808080060A0ABC
:1032F00009010038444448D04844444458070B0B63
:10330000090100201008007C02027E82867A070BE9
:103310000B090100081020007C02027E82867A07D9
:103320000B0B090100102844007C02027E82867A81
:10333000070A0A0901003458007C02027E82867A5C
:10334000070A0A0901002828007C02027E82867A88
:10335000070C0C09010010282810007C02027E8254
:10336000867A0707070901006C12127E90926C079B
:103370000A0A0901FD7C82808080827C1048300727
:103380000B0B090100201008007C8282FE80827CE9
:10339000070B0B090100081020007C8282FE80824E
:1033A0007C070B0B090100102844007C8282FE8000
:1033B000827C070A0A0901002828007C8282FE809C
:1033C000827C050C0C0902008040200000E02020D7
:1033D000202020F8050C0C0902001020400000E01D
:1033E0002020202020F8050C0C0902002050880025
:1033F00000E02020202020F8050B0B09020050508F
:103400000000E02020202020F8070B0B09010048D5
:103410003050083C448282824438070A0A0901007D
:10342000345800BCC28282828282070B0B090100E1
:10343000201008007C82828282827C070B0B0901AB
:1034400000081020007C82828282827C070B0B099C
:103450000100102844007C82828282827C070A0A52
:103460000901003458007C82828282827C070A0A29
:103470000901002828007C82828282827C07090957
:1034800009010010381000FE001038100709090962
:1034900001FF027C8A8A92A2A27C80070B0B0901A1
:1034A00000402010008282828282867A070B0B09FC
:1034B0000100081020008282828282867A070B0B2C
:1034C000090100102844008282828282867A070ADB
:1034D0000A0901002828008282828282867A070EE9
:1034E0000E0901FD0408100042422424241818107B
:1034F0009060070B0B0901FE8080B8C4828282C4F1
:10350000B88080070D0D0901FD24240042422424C7
:1035100024181810906000000A0B02090C0D0E0808
:10352000070304010000000000000000000000008C
:10353000000000000000000000000000000000008B
:103540000000121110000000000000000000000048
:103550000000000000000000000000000102102038
:1035600020080810204010204080020102010804B9
:10357000020101020408102040808040201008044D
:1035800002018004020180402010080402010804A6
:1035900002010102040810204080010204081020EA
:1035A0004080050505050705080808080202020213
:1035B0000A0A0808040404040101010101010101CF
:1035C0000303030303030303040707070C0C0C0C9A
:1035D0000C0C0C0C02020202060606060606060683
:1035E0000B0B0B0B0B0B0B0B00002000230026001A
:1035F00029002C002F003200000100000301060109
:10360000090100002200250028002B002E003100B7
:10361000340002010000050108010B010000210037
:10362000240027002A002D00300033000101000093
:10363000040107010A014E414E494E495459494E71
:1036400046CDCCCC3D0AD7233C17B7D13877CC2B0D
:10365000329595E6241FB14F0A000020410000C8B2
:103660004200401C4620BCBE4CCA1B0E5AAEC59D33
:103670007400D8491DCADC4911241FBECFEFD1E226
:10368000DEBFCDBF00E00CBF15E0A0E0B2E0EAEE87
:10369000F1EC01E00BBF02C007900D92A230B10720
:1036A000D9F725E1A2E0B5E001C01D92A430B20730
:1036B000E1F716E3C6E7D6E300E006C0229701096A
:1036C000FE010BBF0E94B2D8C237D10780E00807C5
:1036D000A9F70E9490D30C94E3E00C940000AF9201
:1036E000BF92CF92DF92EF92FF920F931F93CF93EF
:1036F000DF93CDB7DEB7E0970FB6F894DEBF0FBE0D
:10370000CDBF80E1E1E9F2E0DE01919601900D92FA
:103710008A95E1F780E1E1EAF2E0DE01519601905D
:103720000D928A95E1F780E1E1EBF2E0DE0111967E
:1037300001900D928A95E1F76E0181E2C80ED11CCD
:1037400038E7E32E31E1F32E8E010F5E1F4F68E85C
:1037500071E1AE014F5F5F4FE8E6AE2EE1E1BE2EB4
:1037600020E030E0F60181919191A191B1916F013A
:10377000F70181939193A193B1937F01F801819116
:103780009191A191B1918F01FB0181939193A193AB
:10379000B193BF01FA0181919191A191B191AF01D2
:1037A000F50181939193A193B1935F012F5F3F4FF7
:1037B00024303105B9F60E94F07880E090E0AAE765
:1037C000B4E48093601190936111A0936211B0935F
:1037D000631140E050E86BE375E440935C11509353
:1037E0005D1160935E1170935F11809358119093F7
:1037F0005911A0935A11B0935B1110926411109259
:103800006511109266111092671180E29EE4A0E0AB
:10381000B0E08093981190939911A0939A11B0936E
:103820009B11109248111092491110924A11109256
:103830004B1180E090E0A0E4B1E4809354119093A8
:103840005511A0935611B09357118DEC9CECACEC34
:10385000BEE38093501190935111A0935211B093F5
:10386000531180E090E0A0EAB0E480934C11909373
:103870004D11A0934E11B0934F11109283071092E7
:103880008407109285071092860710927F07109286
:103890008007109281071092820710927B07109286
:1038A0007C0710927D0710927E0784EB90E0909346
:1038B000ED148093EC1486E490E09093EB148093E5
:1038C000EA141092E9141092E81480EF90E09093BB
:1038D000E7148093E6148EE690E09093E5148093CD
:1038E000E4141092E3141092E21480E290E09093BA
:1038F000E0128093DF128AE097EDA7E6B1E48093AF
:10390000650290936602A0936702B09368026DEC23
:103910007CEC8CE49FE30E94CD8D609361027093F8
:10392000620280936302909364026DE37AE083E81D
:1039300092E40E94D98D60935D0270935E02809341
:103940005F029093600280E090E0A0E8BFE3809384
:10395000590290935A02A0935B02B0935C020E94BA
:1039600049831092970780E090E0A0E4B0E4809350
:103970001D0290931E02A0931F02B09320020E948A
:103980008F44EEE5FAE08491882341F09091C000E5
:1039900095FFFCCF8093C6003196F5CFEBEAF3E0BC
:1039A0008491882341F09091C00095FFFCCF8093D3
:1039B000C6003196F5CF8091C00085FFFCCF8AE02C
:1039C0008093C600E0960FB6F894DEBF0FBECDBF61
:1039D000DF91CF911F910F91FF90EF90DF90CF90EB
:1039E000BF90AF9008951F93CF93DF93182FCEE52C
:1039F000DAE0FE018491882341F09091C00095FFA8
:103A0000FCCF8093C6003196F5CF112369F1409128
:103A100078115091791160917A1170917B1183E93D
:103A200093E06FD740917C1150917D1160917E1190
:103A300070917F1180E993E064D74091801150919B
:103A4000811160918211709183118DE893E059D7B3
:103A50004091841150918511609186117091871168
:103A60008AE893E04ED724C0EBE9F3E08491882301
:103A700041F09091C00095FFFCCF8093C600319635
:103A8000F5CF8091C00085FFFCCF8AE08093C6000F
:103A9000FE018491EEE5FAE0882309F4B8CF909115
:103AA000C00095FFFCCF8093C60031968491F4CF7F
:103AB0008091C00085FFFCCF8AE08093C600FE01A4
:103AC0008491EEE5FAE0882349F09091C00095FFDB
:103AD000FCCF8093C60031968491F5CF112369F114
:103AE000409188115091891160918A1170918B11C8
:103AF00087E693E006D740918C1150918D1160912B
:103B00008E1170918F1184E693E0FBD64091901155
:103B100050919111609192117091931181E693E00F
:103B2000F0D6409194115091951160919611709139
:103B300097118EE593E0E5D624C0E0E7F3E08491A9
:103B4000882341F09091C00095FFFCCF8093C60080
:103B50003196F5CF8091C00085FFFCCF8AE080933D
:103B6000C600FE018491EEE5FAE0882309F4B8CF9F
:103B70009091C00095FFFCCF8093C6003196849150
:103B8000F4CF8091C00085FFFCCF8AE08093C6000F
:103B9000FE018491EEE5FAE0882349F09091C0009F
:103BA00095FFFCCF8093C60031968491F5CF112309
:103BB00069F1409168115091691160916A11709199
:103BC0006B1187E393E0AED640916C1150916D116B
:103BD00060916E1170916F1184E393E0A3D64091D0
:103BE000701150917111609172117091731181E394
:103BF00093E098D6409174115091751160917611AF
:103C0000709177118EE293E08DD624C0E0E4F3E06A
:103C10008491882341F09091C00095FFFCCF809360
:103C2000C6003196F5CF8091C00085FFFCCF8AE0B9
:103C30008093C600FE018491EEE5FAE0882309F442
:103C4000B8CF9091C00095FFFCCF8093C60031960D
:103C50008491F4CF8091C00085FFFCCF8AE08093EF
:103C6000C600FE018491EEE5FAE0882349F09091C8
:103C7000C00095FFFCCF8093C60031968491F5CFAC
:103C8000112311F140916011509161116091621105
:103C90007091631183EF92E034D640915C115091A2
:103CA0005D1160915E1170915F1180EF92E029D6F5
:103CB000409158115091591160915A1170915B11B6
:103CC0008DEE92E01ED624C0ECEFF2E084918823C2
:103CD00041F09091C00095FFFCCF8093C6003196D3
:103CE000F5CF8091C00085FFFCCF8AE08093C600AD
:103CF000FE018491EEE5FAE0882309F4C3CF9091A8
:103D0000C00095FFFCCF8093C60031968491F4CF1C
:103D10008091C00085FFFCCF8AE08093C600FE0141
:103D20008491EEE5FAE0882349F09091C00095FF78
:103D3000FCCF8093C60031968491F5CF112309F40E
:103D400043C040916411509165116091661170916A
:103D5000671181E392E0D5D5409148115091491106
:103D600060914A1170914B118EE292E0CAD5409158
:103D700098115091991160919A1170919B118BE259
:103D800092E0D0D540915411509155116091561147
:103D90007091571188E292E0B4D540915011509142
:103DA0005111609152117091531185E292E0A9D5A1
:103DB00040914C1150914D1160914E1170914F11E5
:103DC00082E292E09ED524C0EAE3F2E08491882367
:103DD00041F09091C00095FFFCCF8093C6003196D2
:103DE000F5CF8091C00085FFFCCF8AE08093C600AC
:103DF000FE018491EEE5FAE0882309F4A2CF9091C8
:103E0000C00095FFFCCF8093C60031968491F4CF1B
:103E10008091C00085FFFCCF8AE08093C600FE0140
:103E20008491EEE5FAE0882349F09091C00095FF77
:103E3000FCCF8093C60031968491F5CF112311F108
:103E400040917B0750917C0760917D0770917E07C0
:103E500087E092E056D540917F07509180076091AE
:103E600081077091820784E092E04BD540918307EF
:103E700050918407609185077091860781E092E0F8
:103E800040D524C0E0E1F2E08491882341F0909194
:103E9000C00095FFFCCF8093C6003196F5CF80918E
:103EA000C00085FFFCCF8AE08093C600FE018491AC
:103EB000EEE5FAE0882309F4C3CF9091C00095FFA6
:103EC000FCCF8093C60031968491F4CF8091C000DE
:103ED00085FFFCCF8AE08093C600FE018491EEE569
:103EE000FAE0882349F09091C00095FFFCCF8093C1
:103EF000C60031968491F5CF112351F140916502AE
:103F000050916602609167027091680289EE91E0BB
:103F1000F8D4609161027091620280916302909185
:103F200064020E94D38DAB01BC0186EE91E0E9D41E
:103F300060915D0270915E0280915F0290916002DB
:103F40000E94DF8DAB01BC0183EE91E0DAD424C086
:103F5000E3EFF1E08491882341F09091C00095FF58
:103F6000FCCF8093C6003196F5CF8091C00085FFCD
:103F7000FCCF8AE08093C600FE018491EEE5FAE072
:103F8000882309F4BBCF9091C00095FFFCCF8093AC
:103F9000C60031968491F4CF8091C00085FFFCCF9C
:103FA0008AE08093C600FE018491EEE5FAE0882362
:103FB00049F09091C00095FFFCCF8093C6003196E8
:103FC0008491F5CF80919707882309F436C0112397
:103FD00061F040911D0250911E0260911F0270918C
:103FE000200286EC91E08DD423C0E0EDF1E08491D5
:103FF000882341F09091C00095FFFCCF8093C600CC
:104000003196F5CF8091C00085FFFCCF8AE0809388
:10401000C600FE018491EEE5FAE08823D1F290918A
:10402000C00095FFFCCF8093C60031968491F5CFF8
:104030008091C00085FFFCCF13C0111114C0EAEAC3
:10404000F1E08491882341F09091C00095FFFCCF6E
:104050008093C6003196F5CF8091C00085FFFCCFDC
:104060008AE08093C600FE018491EEE5FAE08823A1
:1040700049F09091C00095FFFCCF8093C600319627
:104080008491F5CF112319F0E1ECF2E029C0E5E9C4
:10409000F1E08491882341F09091C00095FFFCCF1E
:1040A0008093C6003196F5CF8091C00085FFFCCF8C
:1040B0008AE08093C600FE01C491EEE5FAE0CC23CD
:1040C00019F38091C00085FFFCCFC093C6003196E4
:1040D000C491F5CF9091C00095FFFCCF8093C600AE
:1040E00081918111F7CF4AE050E063E573E082E00F
:1040F00095E06CD1409168075091690760916A071B
:1041000070916B07705882E991E0FBD38091C000F9
:1041100085FFFCCF8AE08093C600DF91CF911F918D
:1041200008951F920F920FB60F9211240BB60F92A3
:104130002F933F934F935F936F938F939F93EF933F
:10414000FF936091C6002091830530918405C901D9
:1041500001968F77992740918505509186058417A0
:10416000950741F0F901ED5FFA4F60839093840564
:1041700080938305FF91EF919F918F916F915F9154
:104180004F913F912F910F900BBE0F900FBE0F904C
:104190001F9018959A01AB01211581EE3807410552
:1041A000510549F182E08093C00060E079E08DE341
:1041B00090E00E946BD82150310941095109CA0190
:1041C000B90122E030E040E050E00E946BD830932B
:1041D000C5002093C4008091C10080618093C1001C
:1041E0008091C10088608093C1008091C100806887
:1041F0008093C10008951092C00020E130E0E7CF25
:1042000020918505309186058091830590918405E4
:104210008217930771F0F901ED5FFA4F80812F5FEC
:104220003F4F2F773327309386052093850590E005
:1042300008958FEF9FEF08958091850590918605F1
:10424000909384058093830508954F925F926F92B7
:104250007F928F929F92AF92BF92CF92DF92EF9216
:10426000FF920F931F93CF93DF93CDB7DEB7A09745
:104270000FB6F894DEBF0FBECDBF5C0141155105EE
:1042800061057105E9F420E030E040E350E060E0D2
:1042900070E0A0960FB6F894DEBF0FBECDBFDF91E1
:1042A000CF911F910F91FF90EF90DF90CF90BF9033
:1042B000AF909F908F907F906F905F904F905BC07A
:1042C0008E010F5F1F4FC12CD12C76014801422E69
:1042D000512C612C712C8FEFC81AD80AE80AF80A01
:1042E000CB01BA01A30192010E9449D8CA01F80189
:1042F00061938F01A901BC0141155105610571054B
:1043000051F7F1E0CF1AD108E108F108F401EC0D02
:10431000FD1D80818A3010F440E301C047E3480F5F
:10432000552747FD5095652F752F20E030E0C501DA
:1043300022D081E0C81AD108E108F108EFEFCE16CB
:10434000DE06EE06FE0611F7A0960FB6F894DEBF65
:104350000FBECDBFDF91CF911F910F91FF90EF90D6
:10436000DF90CF90BF90AF909F908F907F906F9095
:104370005F904F9008952115310539F48091C00068
:1043800085FFFCCF4093C60008952A30310509F41B
:1043900024C05BCF9A01462F552747FD5095652FC6
:1043A000752FE9CFCF93DF93EC0120E030E04DE0B3
:1043B00050E060E070E0DFDF20E030E04AE050E015
:1043C00060E070E0CE01DF91CF91D5CF9A01AB01D3
:1043D000662757FD6095762FCECFCF92DF92EF9272
:1043E000FF92CF93DF93EC016A017B0177FF0FC04F
:1043F00020E030E04DE250E060E070E0BCDFF0949F
:10440000E094D094C094C11CD11CE11CF11C2AE0A2
:10441000B701A601CE01DF91CF91FF90EF90DF9021
:10442000CF9013CF2115310539F48091C00085FF5D
:10443000FCCF4093C600089508CF9A01462F50E064
:1044400060E070E0EFCFCF93DF93EC019A01AB0116
:1044500060E070E0E7DFCE01DF91CF91A3CF8F92D4
:104460009F92AF92BF92CF92DF92EF92FF921F93F3
:10447000CF93DF93EC016A017B01122F20E030E043
:10448000A901C701B6010E9478D487FF0CC020E0C3
:1044900030E04DE250E060E070E0CE016CDFF7FA12
:1044A000F094F7F8F094B12C60E070E080E09FE3C6
:1044B000B11641F020E030E040E251E40E947FD4A8
:1044C000B394F6CF9B01AC01C701B6010E949FD304
:1044D0006B017C010E94ECD44B015C010E9418D559
:1044E0009B01AC01C701B6010E949ED36B017C0108
:1044F0002AE0B501A401CE01A8DE112361F0E6ECAB
:10450000F2E08191882339F09091C00095FFFCCFB3
:104510008093C600F6CF112319F120E030E040E28D
:1045200051E4C701B6010E944DD76B017C010E9486
:10453000E7D44B01AA2497FCA094BA2CB501A4019E
:10454000CE014BDFC501B4010E941AD59B01AC011D
:10455000C701B6010E949ED36B017C011150DBCFD5
:10456000DF91CF911F91FF90EF90DF90CF90BF90A0
:10457000AF909F908F90089572CFFC0165917591D7
:104580008591949108958091A3059091A40560E090
:1045900070E001960C94C1DA2F923F924F925F9295
:1045A0006F927F928F929F92AF92BF92CF92DF9243
:1045B000EF92FF920F931F93CF93DF9300D01F9240
:1045C000CDB7DEB75C01FC01E15EF54F14919C01B3
:1045D000220F331F220F331F3C832B832957384F61
:1045E0004901F901108211821282138223E937E016
:1045F0004FE857E06BE877E087E897E00E941E7885
:104600008B819C81825D954FB8DF6B017C01612FAE
:10461000772767FD7095872F972F0E941AD52B015A
:104620003C012B813C812C5A384F190120E030E0AD
:1046300040EC5FE3C701B6010E944DD7A301920190
:104640000E944DD7F10160837183828393832B8114
:104650003C81235D3D4F3A832983F901608171815B
:10466000828193816093070270930802809309020C
:1046700090930A0220E030E040E752E40E947FD4A9
:1046800057E6C52E57E0D52E7B018C0120E637E09A
:104690004CE557E068E577E084E597E00E94FC6D23
:1046A0000E949381F401108211821282138223E905
:1046B00037E04FE857E06BE877E087E897E00E9443
:1046C0001E782B813C812E5D354F4901C90155DF94
:1046D0009058A30192010E944DD7F101608371832C
:1046E0008283938320E030E040E752E46091070248
:1046F000709108028091090290910A020E947FD471
:104700007B018C0120E637E04CE557E068E577E077
:1047100084E597E00E94FC6D0E949381C4012DDF27
:104720009B01AC010E949FD3A30192010E944DD72F
:10473000F1016083718382839383F501EE0FFF1F84
:10474000E95DFD4F6081718116161706CCF488274C
:1047500077FD8095982F0E941AD59B01AC01E981C5
:10476000FA8160817181828193810E947FD46093FC
:104770000702709308028093090290930A0227C0EF
:1047800020E030E040E251E4E981FA81608171810A
:10479000828193810E947FD4609307027093080204
:1047A0008093090290930A02E8ECF2E08191882359
:1047B00039F09091C00095FFFCCF8093C600F6CFF2
:1047C0008091C00085FFFCCF8AE08093C60020E086
:1047D00030E040E752E46091070270910802809156
:1047E000090290910A020E947FD427E6C22E27E098
:1047F000D22E7B018C0120E637E04CE557E068E5DE
:1048000077E084E597E00E94FC6D0E9493818B81A4
:104810009C81865C954FB1DE2B813C812957384FB6
:1048200079010B811C810558184FF80120813181D5
:10483000428153810E949FD3F701608371838283F9
:1048400093838B819C818E5A954F97DE2B813C817F
:104850002159384F6901F80120813181428153810A
:104860000E949FD3F60160837183828393838B813F
:104870009C818A5B954F81DE2B813C81235F3D4F7C
:104880006901F80120813181428153810E949FD3C7
:10489000F60160837183828393832B813C812C5A40
:1048A000384FF70180819181A281B381F901808322
:1048B0009183A283B3831092070210920802109290
:1048C000090210920A020E943879F501E459F84F62
:1048D00081E080830F900F900F900F90DF91CF9128
:1048E0001F910F91FF90EF90DF90CF90BF90AF900E
:1048F0009F908F907F906F905F904F903F902F9000
:104900000895FC012491222341F03091C00035FF2D
:10491000FCCF2093C6000196F4CF22E030E082E085
:1049200095E02ACEFC012491222341F03091C00071
:1049300035FFFCCF2093C6000196F4CF2AE030E08B
:1049400082E095E06FCDBC01FC0180818B3309F4DE
:1049500071C08091A9059091AA0504970CF06AC0D6
:104960002091AB053091AC0540E6429FC001439FCA
:10497000900D11248D549A4F0E94FADDEEE5FAE075
:104980008491882341F09091C00095FFFCCF8093E3
:10499000C6003196F5CFE4E1FAE08491882341F036
:1049A0009091C00095FFFCCF8093C6003196F5CF63
:1049B0008091AB059091AC0520E6289FF001299FDE
:1049C000F00D1124ED54FA4F8191882339F0909124
:1049D000C00095FFFCCF8093C600F6CFE2E1FAE07D
:1049E0008491882341F09091C00095FFFCCF809383
:1049F000C6003196F5CF8091C00085FFFCCF8AE0DC
:104A00008093C6008091AB059091AC05019664E05F
:104A100070E00E9436D89093AC058093AB058091EE
:104A2000A9059091AA0501969093AA058093A905DE
:104A300081E0089580E00895DF92EF92FF920F9356
:104A40001F93CF93DF93CDB7DEB76E970FB6F89471
:104A5000DEBF0FBECDBF6091A1057091A2056115AB
:104A60007105A1F04DE150E08E010F5F1F4FC801AD
:104A70000E9482DD1E8EF8017F01E01AF10AD190BA
:104A8000DD2031F08AE0D812F7CF02C080E01DC0EF
:104A9000F801EE0DFF1D1082C80155DF8823A1F03B
:104AA000DD2071F08FEFE81AF80A8091A10590914E
:104AB000A2058E0D9F1D9093A2058093A10504C0B1
:104AC0001092A2051092A10581E06E960FB6F8949F
:104AD000DEBF0FBECDBFDF91CF911F910F91FF9031
:104AE000EF90DF9008959093A2058093A105A4CF45
:104AF000EAE0F1E08081877F80839FB7F894EBE064
:104B0000F1E08081886080839FBF0895EAE0F1E052
:104B10008081806180839FB7F894EBE0F1E0808131
:104B20008F7E80839FBF0895E3DFF0DF40E054E88D
:104B300063E070E082E095E02DDBECE0FAE0849148
:104B4000882341F09091C00095FFFCCF8093C60070
:104B50003196F5CF8091C00085FFFCCF8AE080932D
:104B6000C6008EE59AE0FC012491222341F03091A9
:104B7000C00035FFFCCF2093C6003196F5CF24B797
:104B800020FF14C0E4E0FAE03491332341F0409177
:104B9000C00045FFFCCF3093C6003196F5CF309171
:104BA000C00035FFFCCF3AE03093C60021FF14C0AF
:104BB000E4EFF9E03491332341F04091C00045FF28
:104BC000FCCF3093C6003196F5CF3091C00035FF51
:104BD000FCCF3AE03093C60022FF14C0E3EEF9E0C8
:104BE0003491332341F04091C00045FFFCCF309316
:104BF000C6003196F5CF3091C00035FFFCCF3AE0CA
:104C00003093C60023FF14C0E3EDF9E03491332361
:104C100041F04091C00045FFFCCF3093C600319673
:104C2000F5CF3091C00035FFFCCF3AE03093C6009D
:104C300025FF14C0E3ECF9E02491222341F03091E8
:104C4000C00035FFFCCF2093C6003196F5CF2091F0
:104C5000C00025FFFCCF2AE02093C60014BEECEB79
:104C6000F9E02491222341F03091C00035FFFCCFC0
:104C70002093C6003196F5CFE1EBF9E02491222391
:104C800041F03091C00035FFFCCF2093C600319633
:104C9000F5CF2091C00025FFFCCF2AE02093C6006D
:104CA000FC012491EEE5FAE0222349F03091C000A6
:104CB00035FFFCCF2093C60031962491F5CFE1EA71
:104CC000F9E02491222341F03091C00035FFFCCF60
:104CD0002093C6003196F5CFECE8F9E02491222329
:104CE00041F03091C00035FFFCCF2093C6003196D3
:104CF000F5CFE0E8F9E02491222341F03091C000A3
:104D000035FFFCCF2093C6003196F5CFE9E6F9E0F8
:104D10002491222341F03091C00035FFFCCF209335
:104D2000C6003196F5CF2091C00025FFFCCF2AE0C8
:104D30002093C600EEE5F9E02491222341F0309162
:104D4000C00035FFFCCF2093C6003196F5CFE2E5D9
:104D5000F9E02491222341F03091C00035FFFCCFCF
:104D60002093C6003196F5CF2091C00025FFFCCFDF
:104D70002AE02093C600FC018491EEE5FAE0882346
:104D800049F09091C00095FFFCCF8093C60031960A
:104D90008491F5CFE3E4F9E08491882341F0909188
:104DA000C00095FFFCCF8093C6003196F5CF0E94DE
:104DB000CD544AE050E0BC0182E095E007DBECE234
:104DC000F9E08491882341F09091C00095FFFCCFD9
:104DD0008093C6003196F5CF4AE050E060ED74E074
:104DE00082E095E0F3DA8091C00085FFFCCF8AE095
:104DF0008093C6001092AF051092B0051092B105D5
:104E00001092B2050E946F1B80E00E94F31C0E946A
:104E100053850E94966C0E94FB800E9437A5FFEF8D
:104E200023ED80E3F15020408040E1F700C0000016
:104E300008958091A3059091A4054AE050E060E0B8
:104E400070E001960C9429DC682F772767FD709538
:104E50002091AD053091AE0540E6429FC001439FD1
:104E6000900D11248D549A4F0E94E6DD9093A40575
:104E70008093A30521E0892B09F420E0822F089577
:104E80000E9447D060939D0570939E0580939F0577
:104E90009093A00508958091070290910802A09137
:104EA0000902B0910A028093400790934107A093B2
:104EB0004207B09343078091250290912602909378
:104EC00099078093980784E690E090932602809358
:104ED00025020E9447D060939D0570939E058093A4
:104EE0009F059093A00581E00E94047A8091870736
:104EF00090918807A0918907B0918A078093540701
:104F000090935507A0935607B093570780918B074E
:104F100090918C07A0918D07B0918E0780935807D0
:104F200090935907A0935A07B0935B0780918F071E
:104F300090919007A0919107B091920780935C07A0
:104F400090935D07A0935E07B0935F0710920702EE
:104F5000109208021092090210920A0288E574DF8A
:104F6000882311F090E008C089E56EDF8111FACF47
:104F70008AE56ADF91E0982790930B02911175C042
:104F800088E562DF811171C080910B02811171C0CF
:104F900089E55ADF81116DC088E556DF8823C1F0AD
:104FA00048DF672B682B692B99F0EDDA20917B079E
:104FB00030917C0740917D0750917E070E949FD3DE
:104FC00060938707709388078093890790938A0777
:104FD00089E53ADF882331F02CDF672B682B692BBA
:104FE00009F04BC080910B0281115BC08AE52CDF78
:104FF000811157C08AE528DF882331F01ADF672B3B
:10500000682B692B09F051C023E937E04FE857E0DE
:105010006BE877E087E897E00E941E7880E00E94C6
:10502000047A8091400790914107A0914207B09186
:1050300043078093070290930802A0930902B0935C
:105040000A02809198079091990790932602809385
:1050500025020E9447D060939D0570939E05809322
:105060009F059093A0050C94387980E090E094DA45
:105070008BCF81E090E090DA8FCF85DA20917F07A7
:105080003091800740918107509182070E949FD301
:1050900060938B0770938C0780938D0790938E0796
:1050A000A1CF82E090E078DAA5CF6DDA2091830776
:1050B0003091840740918507509186070E949FD3C5
:1050C00060938F0770939007809391079093920756
:1050D0009BCFCF92DF92EF92FF920F931F93CF93CC
:1050E000DF9385E4B1DE811102C00E94938179E3F0
:1050F000E72E74E0F72E00E010E0C0E0D0E0F7010A
:1051000081917F01A1DE882371F1C330D10571F453
:105110003ADA60939307709394078093950790937E
:10512000960783E997E00E94C3781DC02CDA9801A6
:105130002957384F6901F801E558F84F208131812E
:10514000428153810E949FD3F601608371838283E1
:10515000938323E937E04FE857E06BE877E087E88F
:1051600097E00E941E7821960C5F1F4FC430D10536
:1051700031F6DF91CF911F910F91FF90EF90DF906B
:10518000CF9008958DE697E00E94A2A49FB7F8946F
:10519000EBE0F1E080818D7F80839FBF89989FB78E
:1051A000F894E8E0F1E080818E7F80839FBFA29831
:1051B00012980895EDE5F7E08491882341F09091ED
:1051C000C00095FFFCCF8093C6003196F5CF80914B
:1051D000C00085FFFCCF8AE08093C6008EE997E08F
:1051E0000E94A15BEFE4F7E08491882341F0909165
:1051F000C00095FFFCCF8093C6003196F5CF80911B
:10520000C00085FFFCCF8AE08093C6000895CF934D
:10521000DF938091A3059091A4056AE270E0049663
:105220000E94E6DDEC010097D1F02091AD053091B0
:10523000AE0540E6429FC001439F900D11246EE4ED
:1052400070E08D549A4F0E94E6DD60E270E00E94AB
:10525000E6DD01969093A4058093A30518826091E2
:10526000A3057091A4056C5F7F4F21E040E08EE9BB
:1052700097E0DF91CF910C949360CF93DF9380916F
:10528000A1078823B9F160E08EE997E00E942360CE
:105290008091A3059091A4056AE270E004960E94B3
:1052A000E6DDEC010097D1F02091AD053091AE051F
:1052B00040E6429FC001439F900D11246EE470E0D0
:1052C0008D549A4F0E94E6DD60E270E00E94E6DDB8
:1052D00001969093A4058093A30518826091A3057D
:1052E0007091A4056C5F7F4F8EE997E0DF91CF91BD
:1052F0000C942D5DDF91CF9108950F931F93CF9361
:10530000DF93CDB7DEB76E970FB6F894DEBF0FBE52
:10531000CDBF0E9447D060938D0570938E0580931A
:105320008F05909390050091910510919205209121
:10533000930530919405601B710B820B930B28EE43
:1053400033E040E050E00E9449D8CA01B9012CE3A3
:1053500030E040E050E00E9449D87F936F933F9344
:105360002F9380E497E09F938F93CE0101969F93B4
:105370008F930E941EDEEEE5FAE084910FB6F8945A
:10538000DEBF0FBECDBF882349F09091C00095FFCE
:10539000FCCF8093C60031968491F5CFFE01319603
:1053A0008191882339F09091C00095FFFCCF8093C4
:1053B000C600F6CF8091C00085FFFCCF8AE08093C5
:1053C000C600CE0101960E9416A280911311882377
:1053D00009F1109213110091670710E0000F111FDF
:1053E0000B5B1D4EF80160817181882777FD8095E8
:1053F000982F0E941AD52091450230914602409183
:105400004702509148020E947BD618161CF4F801FE
:10541000118210826E960FB6F894DEBF0FBECDBF1C
:10542000DF91CF911F910F9108950F931F93CF9309
:10543000DF938091A00781110E949381C091A30501
:10544000D091A405249661E270E0CE010E94E6DDD1
:10545000009721F08C010F5F1F4F01C08E016AE29F
:1054600070E0CE010E94E6DD009711F0FC01108291
:1054700080E5EADC882341F0C1E08091A3059091AA
:10548000A4058017910708F0C0E08091A107882348
:10549000A1F121E02C2741E0B8018EE997E00E94BC
:1054A000936083E5D1DC882339F08091A305909146
:1054B000A4058017910788F08EE997E00E94C25CEE
:1054C000C1111BC00E9447D0609391057093920553
:1054D000809393059093940510C0ABDCAB01BC01A5
:1054E0004093210A5093220A6093230A7093240A5E
:1054F0008CE699E00E94684FDFCFDF91CF911F913A
:105500000F910895CF93DF938091A3059091A40507
:105510006AE270E005960E94E6DDEC010097D1F0AA
:105520002091AD053091AE0540E6429FC001439FFA
:10553000900D11246EE470E08D549A4F0E94E6DDC8
:1055400060E270E00E94E6DD01969093A4058093EE
:10555000A30518826091A3057091A4056B5F7F4F2E
:105560008EE997E0DF91CF910C94AF630F931F9377
:10557000CF93DF9383E568DC882309F440C003D828
:105580000E94E7D4162F072F862F902FEC0180E57D
:105590005BDC882321F0CF3FD10559F150F1CDE0FC
:1055A000D0E0E9EFF3E0819191918C179D0739F1FB
:1055B00084E0E933F807B9F7C730D10539F4812F12
:1055C000902F909366078093650702C0D7FD17C0A0
:1055D00061E08C2F0E9425D2612F8C2F0E945ED219
:1055E000612F702F8C2FDF91CF911F910F910C9411
:1055F0000FD10E94C3220E94E7D4EB01D2CFDF91EA
:10560000CF911F910F9108950E94F2850E9493817E
:10561000129A0E94FD81109266071092650768EE4B
:1056200073E080E090E00E9476D0EAE0F1E08081D3
:10563000806180839FB7F894EBE0F1E08081806126
:1056400080839FBF10920C028DE796E00E94A2A477
:105650000C9460A583E5F8DB882399F00E94C322AF
:1056600020E030E04AE754E40E944DD70E94ECD499
:105670006093950570939605809397059093980590
:10568000089588E5E1DB811111C089E5DDDB811139
:105690000DC08AE5D9DB811109C085E4D5DB811114
:1056A00005C00E949381129A0C94FD810E949381FF
:1056B00088E5CADB882351F09FB7F89480910B01ED
:1056C000826080930B019FBF10926C0789E5BCDB61
:1056D000882319F0899A10926D078AE5B5DB882333
:1056E00059F09FB7F8948091080181608093080178
:1056F0009FBFA29A10926E0785E4A6DB882311F063
:10570000129A089508953F924F925F926F927F92FE
:105710008F929F92AF92BF92CF92DF92EF92FF92C1
:105720000F931F93CF93DF93F9E38F2EF4E09F2E17
:10573000C8E7D1E1A8E8AA2EA1E1BA2E08E311E159
:10574000312CF40181914F017FDB882309F458C08B
:10575000F3E03F124FC00E94C3226B017C0120E0A6
:1057600030E040EA51E40E9478D487FF3EC0A701B0
:105770009601688179818A819B810E947FD42B0167
:105780003C019B01AC0160914C1170914D118091D5
:105790004E1190914F110E944DD760934C11709310
:1057A0004D1180934E1190934F11A3019201F50179
:1057B00060817181828193810E944DD7F501608360
:1057C000718382839383F8016081718182819381E7
:1057D0000E9418D5A30192010E944DD70E94ECD4DB
:1057E000F8016083718382839383C882D982EA82BD
:1057F000FB8206C00E94C322688379838A839B83CD
:1058000033942496F4E0AF0EB11C0C5F1F4F84E07C
:10581000381297CFDF91CF911F910F91FF90EF90AA
:10582000DF90CF90BF90AF909F908F907F906F90C0
:105830005F904F903F900895E9EAF5E084918823C6
:1058400041F09091C00095FFFCCF8093C600319647
:10585000F5CF409187075091880760918907709133
:105860008A0722E030E082E095E00E94BC22E5EA6F
:10587000F5E08491882341F09091C00095FFFCCF22
:105880008093C6003196F5CF40918B0750918C07DD
:1058900060918D0770918E0722E030E082E095E004
:1058A0000E94BC22E1EAF5E08491882341F09091C6
:1058B000C00095FFFCCF8093C6003196F5CF409194
:1058C0008F0750919007609191077091920722E0A5
:1058D00030E082E095E00E94BC22EDE9F5E08491A1
:1058E000882341F09091C00095FFFCCF8093C600C3
:1058F0003196F5CF409193075091940760919507A9
:105900007091960722E030E082E095E00E94BC2290
:10591000E2E9F5E08491882341F09091C00095FF81
:10592000FCCF8093C6003196F5CF0E94EF810E9494
:105930001AD5209178113091791140917A115091B6
:105940007B110E947FD4AB01BC0122E030E082E0F9
:1059500095E00E94BC22EEE8F5E08491882341F0B6
:105960009091C00095FFFCCF8093C6003196F5CF93
:1059700081E00E94EF810E941AD520917C11309124
:105980007D1140917E1150917F110E947FD4AB0117
:10599000BC0122E030E082E095E00E94BC22EAE80F
:1059A000F5E08491882341F09091C00095FFFCCFF1
:1059B0008093C6003196F5CF82E00E94EF810E946D
:1059C0001AD520918011309181114091821150910E
:1059D00083110E947FD4AB01BC0122E030E082E061
:1059E00095E00E94BC228091C00085FFFCCF8AE038
:1059F0008093C6000895E7E1F3E08191882339F0B0
:105A00009091C00095FFFCCF8093C600F6CF8091A7
:105A1000C00085FFFCCF8AE08093C600E2E8F5E095
:105A20008491882341F09091C00095FFFCCF809332
:105A3000C6003196F5CF309903C0E8E0F3E009C025
:105A4000E2E1F3E006C09091C00095FFFCCF8093A7
:105A5000C60081918111F7CF8091C00085FFFCCFF6
:105A60008AE08093C600EAE7F5E08491882341F05C
:105A70009091C00095FFFCCF8093C6003196F5CF82
:105A8000319903C0E8E0F3E009C0E2E1F3E006C0C9
:105A90009091C00095FFFCCF8093C6008191811149
:105AA000F7CF8091C00085FFFCCF8AE08093C600CD
:105AB000E2E7F5E08491882341F09091C00095FFE2
:105AC000FCCF8093C6003196F5CF329903C0E8E051
:105AD000F3E009C0E2E1F3E006C09091C00095FF59
